:020000040000FA
:100000000C9462000C948A000C948A000C948A0070
:100010000C948A000C948A000C948A000C948A0038
:100020000C948A000C948A000C948A000C948A0028
:100030000C948A000C948A000C948A000C948A0018
:100040000C94DB020C948A000C94A9020C94830299
:100050000C948A000C948A000C948A000C948A00F8
:100060000C948A000C948A000000000023002600F3
:10007000290000000008000201000003040700003E
:1000800000000000000000000000250028002B00F8
:1000900000000000240027002A00040404040404D3
:1000A0000404020202020202030303030303010227
:1000B00004081020408001020408102001020408F6
:1000C0001020D30311241FBECFEFD8E0DEBFCDBF79
:1000D00011E0A0E0B1E0E0E1F8E002C005900D928F
:1000E000AE36B107D9F722E0AEE6B1E001C01D920D
:1000F000A431B207E1F710E0C2E6D0E004C02197D6
:10010000FE010E940004C136D107C9F70E942503F1
:100110000C9406040C940000CF93DF9390E0FC0154
:10012000E255FF4F249186569F4FFC01849188230E
:10013000C1F090E0880F991FFC01E057FF4FC59177
:10014000D491FC01EA57FF4FA591B4919FB7F89461
:100150008881E22FE0958E2388838C91E823EC93AD
:100160009FBFDF91CF910895AF92BF92CF92DF9260
:10017000EF92FF920F931F93CF93DF936C017B015C
:100180008B01040F151FEB015E01AE18BF08C017ED
:10019000D10759F06991D601ED91FC910190F08160
:1001A000E02DC6010995892B79F7C501DF91CF9123
:1001B0001F910F91FF90EF90DF90CF90BF90AF9085
:1001C0000895FC01538D448D252F30E0842F90E05D
:1001D000821B930B541710F0CF9608950197089542
:1001E000FC01918D828D981761F0A28DAE0FBF2F0B
:1001F000B11D5D968C91928D9F5F9F73928F90E061
:1002000008958FEF9FEF0895FC01918D828D9817CF
:1002100031F0828DE80FF11D858D90E008958FEF0C
:100220009FEF0895FC01918D228D892F90E0805CD5
:100230009F4F821B91098F739927089587E791E05B
:100240000E94120121E0892B09F420E0822F0895F9
:1002500080E090E0892B29F00E941E0181110C940E
:1002600000000895FC01A48DA80FB92FB11DA35A59
:10027000BF4F2C91848D90E001968F739927848FC6
:10028000A689B7892C93A089B1898C9183708064E9
:100290008C93938D848D981306C00288F389E02D8A
:1002A00080818F7D80830895EF92FF920F931F933B
:1002B000CF93DF93EC0181E0888F9B8D8C8D981319
:1002C0001AC0E889F989808185FF15C09FB7F89425
:1002D000EE89FF896083E889F98980818370806471
:1002E00080839FBF81E090E0DF91CF911F910F91BC
:1002F000FF90EF900895F62E0B8D10E00F5F1F4FCB
:100300000F731127E02E8C8D8E110CC00FB607FCD9
:10031000FACFE889F989808185FFF5CFCE010E9467
:100320003201F1CFEB8DEC0FFD2FF11DE35AFF4FA2
:10033000F0829FB7F8940B8FEA89FB8980818062F5
:10034000CFCFCF93DF93EC01888D8823B9F0AA89B2
:10035000BB89E889F9898C9185FD03C0808186FD80
:100360000DC00FB607FCF7CF8C9185FFF2CF8081CF
:1003700085FFEDCFCE010E943201E9CFDF91CF9111
:10038000089590E0FC01EE58FF4F2491FC01E255E6
:10039000FF4F3491FC01E656FF4FE491EE23C1F18B
:1003A000222339F02330E9F090F4213001F122309A
:1003B00011F1F0E0EE0FFF1FE859FF4FA591B49146
:1003C000EC91E32381E090E029F580E00895273067
:1003D000A9F02830C9F0243061F7809180008F7D2A
:1003E00003C0809180008F7780938000E2CF84B536
:1003F0008F7784BDDECF84B58F7DFBCF8091B00039
:100400008F778093B000D5CF8091B0008F7DF9CFEA
:1004100080E090E008953FB7F89480917301909147
:100420007401A0917501B091760126B5A89B05C015
:100430002F3F19F00196A11DB11D3FBFBA2FA92F63
:10044000982F8827BC01CD01620F711D811D911D60
:1004500042E0660F771F881F991F4A95D1F70895CC
:100460008F929F92AF92BF92CF92DF92EF92FF92C4
:100470000E940B024B015C0184EFC82EDD24D39453
:10048000E12CF12C0E940B02681979098A099B0959
:10049000683E734081059105A8F321E0C21AD10896
:1004A000E108F10888EE880E83E0981EA11CB11CBB
:1004B000C114D104E104F10429F7FF90EF90DF901B
:1004C000CF90BF90AF909F908F900895CF93DF9380
:1004D000FC0101900020E9F73197AF01481B590B4F
:1004E000BC0187E791E00E94B400EC0142E050E0DB
:1004F00062E171E087E791E00E94B4008C0F9D1FDC
:10050000DF91CF9108951F920F920FB60F92112491
:100510002F933F934F935F936F937F938F939F930B
:10052000AF93BF93EF93FF9387E791E00E9432016F
:10053000FF91EF91BF91AF919F918F917F916F91BB
:100540005F914F913F912F910F900FBE0F901F9091
:1005500018951F920F920FB60F9211242F938F931D
:100560009F93EF93FF93E0918701F0918801808141
:10057000E0918D01F0918E0182FD1BC090818091F0
:1005800090018F5F8F7320919101821741F0E0916C
:100590009001F0E0E958FE4F958F80939001FF9114
:1005A000EF919F918F912F910F900FBE0F901F9001
:1005B00018958081F4CF1F920F920FB60F921124DD
:1005C0002F933F938F939F93AF93BF9380916F012E
:1005D00090917001A0917101B091720130916E0102
:1005E00023E0230F2D3758F50196A11DB11D20934F
:1005F0006E0180936F0190937001A0937101B0938D
:1006000072018091730190917401A0917501B09174
:1006100076010196A11DB11D809373019093740121
:10062000A0937501B0937601BF91AF919F918F9187
:100630003F912F910F900FBE0F901F90189526E8B5
:10064000230F0296A11DB11DD2CF789484B582608C
:1006500084BD84B5816084BD85B5826085BD85B566
:10066000816085BD80916E00816080936E001092E4
:10067000810080918100826080938100809181005F
:1006800081608093810080918000816080938000F0
:100690008091B10084608093B1008091B00081604E
:1006A0008093B00080917A00846080937A0080917A
:1006B0007A00826080937A0080917A0081608093D2
:1006C0007A0080917A00806880937A001092C1004D
:1006D000E0918701F091880182E08083E0918301BD
:1006E000F09184011082E0918501F09186018FECF8
:1006F000808310928F01E0918B01F0918C0186E054
:100700008083E0918901F0918A01808180618083FA
:10071000E0918901F0918A01808188608083E09175
:100720008901F0918A01808180688083E09189014C
:10073000F0918A0180818F7D808383E00E948C000C
:1007400087E00E948C0080E0E82E80E0F82E83E0B5
:100750000E94C1018C0187E00E94C101EC0185E18A
:1007600091E00130110521F0012B31F48EE291E08E
:100770000E9466020E94300282E491E0C130D105FD
:1007800021F0CD2B31F48AE591E00E9466020E94AF
:100790003002E114F104D9F20E941E018823B9F25B
:1007A0000E940000D4CFE7E7F1E01382128288EEC6
:1007B00093E0A0E0B0E084839583A683B78384E0D0
:1007C00091E09183808385EC90E09587848784EC29
:1007D00090E09787868780EC90E0918B808B81EC0E
:1007E00090E0938B828B82EC90E0958B848B86ECEF
:1007F00090E0978B868B118E128E138E148E089537
:10080000EE0FFF1F0590F491E02D0994F894FFCFAF
:10081000000000005401B400E100A1011201F00049
:1008200004010D0A0045737461206C6C6F76696574
:100830006E646F20656E2043757269636F004E6F42
:10084000206C6C7565766520656E204375726963F2
:100850006F0045737461206C6C6F7669656E646FB0
:1008600020656E2054616C6361004E6F206C6C7566
:0E08700065766520656E2054616C6361000042
:107E0000112484B714BE81FFF0D085E080938100F7
:107E100082E08093C00088E18093C10086E0809377
:107E2000C20080E18093C4008EE0C9D0259A86E02C
:107E300020E33CEF91E0309385002093840096BBD3
:107E4000B09BFECF1D9AA8958150A9F7CC24DD24C4
:107E500088248394B5E0AB2EA1E19A2EF3E0BF2EE7
:107E6000A2D0813461F49FD0082FAFD0023811F036
:107E7000013811F484E001C083E08DD089C08234E0
:107E800011F484E103C0853419F485E0A6D080C0E4
:107E9000853579F488D0E82EFF2485D0082F10E0AE
:107EA000102F00270E291F29000F111F8ED06801E7
:107EB0006FC0863521F484E090D080E0DECF843638
:107EC00009F040C070D06FD0082F6DD080E0C81688
:107ED00080E7D80618F4F601B7BEE895C0E0D1E017
:107EE00062D089930C17E1F7F0E0CF16F0E7DF06D8
:107EF00018F0F601B7BEE89568D007B600FCFDCFD4
:107F0000A601A0E0B1E02C9130E011968C91119780
:107F100090E0982F8827822B932B1296FA010C0160
:107F200087BEE89511244E5F5F4FF1E0A038BF0790
:107F300051F7F601A7BEE89507B600FCFDCF97BE46
:107F4000E89526C08437B1F42ED02DD0F82E2BD052
:107F50003CD0F601EF2C8F010F5F1F4F84911BD097
:107F6000EA94F801C1F70894C11CD11CFA94CF0C13
:107F7000D11C0EC0853739F428D08EE10CD085E9AC
:107F80000AD08FE07ACF813511F488E018D01DD067
:107F900080E101D065CF982F8091C00085FFFCCF94
:107FA0009093C60008958091C00087FFFCCF809118
:107FB000C00084FD01C0A8958091C6000895E0E648
:107FC000F0E098E1908380830895EDDF803219F02E
:107FD00088E0F5DFFFCF84E1DECF1F93182FE3DFCA
:107FE0001150E9F7F2DF1F91089580E0E8DFEE27F6
:047FF000FF270994CA
:027FFE00040479
:00000001FF
