:100000000C9435010C9466010C9466010C94660105
:100010000C9466010C9466010C9466010C946601C4
:100020000C9466010C9466010C9466010C946601B4
:100030000C9466010C9466010C9466010C946601A4
:100040000C9466010C9466010C9466010C94660194
:100050000C9466010C9466010C9466010C94640384
:100060000C9466010C942E030C9404030C9466010A
:100070000C9466010C9466010C9466010C94660164
:100080000C9466010C9466010C9466010C94660154
:100090000C9466010C9466010C9466010C94660144
:1000A0000C9466010C9466010C9466010C94660134
:1000B0000C9466010C9466010C9466010C94660124
:1000C0000C9466010C9466010C9466010C94660114
:1000D0000C9466010C9466010C9466010C94660104
:1000E0000C9466010C94C8040C94E3040C94C404AE
:1000F0000C94C6010C94ED040C94DF040C94E704FA
:100100000C9495010C94F5040C94FE010C944B0294
:100110000C9468010C94CF040C9406050C94A7046D
:100120000C94B8010C94C0040C94FB040C94F104DE
:100130000C94FF040C94CC040C94D9040C94D504B6
:100140000C94A2040C94A4010000220025002800B5
:100150002B002E00310034000201000005010801CF
:100160000B0100002100240027002A002D00300090
:10017000330001010000040107010A010000200012
:100180002300260029002C002F003200000100006F
:10019000030106010901050505050705080808080A
:1001A000020202020A0A080804040404010101010F
:1001B000010101010303030303030303040707070A
:1001C0000C0C0C0C0C0C0C0C0202020206060606AF
:1001D000060606060B0B0B0B0B0B0B0B010210207C
:1001E000200808102040102040800201020108046D
:1001F0000201010204081020408080402010080401
:100200000201800402018040201008040201080459
:10021000020101020408102040800102040810209D
:10022000408000000A0B02090C0D0E0807030401B0
:1002300000000000000000000000000000000000BE
:10024000000000000000000000000000000012118B
:10025000100000000000000000000000000000008E
:100260000000000000000000060511241FBECFEFB3
:10027000D1E2DEBFCDBF00E00CBF12E0A0E0B2E0F3
:10028000EAE7FAE000E00BBF02C007900D92AA3245
:10029000B107D9F722E0AAE2B2E001C01D92A03D69
:1002A000B207E1F711E0C5E3D1E000E006C0219715
:1002B0000109802FFE010E943305C433D10780E07D
:1002C0000807A9F70E94AE030C943B050C940000AC
:1002D000AF92BF92CF92DF92EF92FF920F931F9354
:1002E000CF93DF936C017B018B01040F151FEB0192
:1002F0005E01AE18BF08C017D10759F06991D60149
:10030000ED91FC910190F081E02DC6011995892BAA
:1003100079F7C501DF91CF911F910F91FF90EF9079
:10032000DF90CF90BF90AF900895FC01538D448D26
:10033000252F30E0842F90E0821B930B541710F090
:10034000CF96089501970895FC01918D828D98179D
:1003500061F0A28DAE0FBF2FB11D5D968C91928D75
:100360009F5F9F73928F90E008958FEF9FEF0895A6
:10037000FC01918D828D981731F0828DE80FF11D6F
:10038000858D90E008958FEF9FEF0895FC01918D8A
:10039000228D892F90E0805C9F4F821B91098F7383
:1003A0009927089583E392E00E94C60121E0892BFA
:1003B00009F420E0822F0895FC01A48DA80FB92F25
:1003C000B11DA35ABF4F2C91848D90E001968F737D
:1003D0009927848FA689B7892C93A089B1898C919C
:1003E000837080648C93938D848D981306C00288EB
:1003F000F389E02D80818F7D80830895EF92FF92B5
:100400000F931F93CF93DF93EC0181E0888F9B8D37
:100410008C8D98131AC0E889F989808185FF15C0F1
:100420009FB7F894EE89FF896083E889F989808114
:100430008370806480839FBF81E090E0DF91CF91E3
:100440001F910F91FF90EF900895F62E0B8D10E005
:100450000F5F1F4F0F731127E02E8C8D8E110CC074
:100460000FB607FCFACFE889F989808185FFF5CFBF
:10047000CE010E94DC01F1CFEB8DEC0FFD2FF11DC1
:10048000E35AFF4FF0829FB7F8940B8FEA89FB89FC
:1004900080818062CFCFCF93DF93EC01888D88235A
:1004A000B9F0AA89BB89E889F9898C9185FD03C0D7
:1004B000808186FD0DC00FB607FCF7CF8C9185FFBC
:1004C000F2CF808185FFEDCFCE010E94DC01E9CF24
:1004D000DF91CF91089580E090E0892B29F00E9470
:1004E000D20181110E94000080E090E0892B49F048
:1004F00080E090E0892B29F00E94000081110E9489
:10050000000080E090E0892B49F080E090E0892BAA
:1005100029F00E94000081110E94000080E090E01C
:10052000892B49F080E090E0892B29F00E9400009F
:1005300081110C94000008953FB7F89480912F0228
:1005400090913002A0913102B091320226B5A89B61
:1005500005C02F3F19F00196A11DB11D3FBFBA2F55
:10056000A92F982F8827BC01CD01620F711D811D15
:10057000911D42E0660F771F881F991F4A95D1F79A
:1005800008958F929F92AF92BF92CF92DF92EF9297
:10059000FF920E949C024B015C0184EFC82EDD2477
:1005A000D394E12CF12C0E949C02681979098A09E4
:1005B0009B09683E734081059105A8F321E0C21AAA
:1005C000D108E108F10888EE880E83E0981EA11C8E
:1005D000B11CC114D104E104F10429F7FF90EF909C
:1005E000DF90CF90BF90AF909F908F900895FC01C7
:1005F00001900020E9F73197AF01481B590BBC016E
:1006000083E392E00C9468011F920F920FB60F9251
:1006100011240BB60F922F933F934F935F936F93D9
:100620007F938F939F93AF93BF93EF93FF9383E356
:1006300092E00E94DC01FF91EF91BF91AF919F91F9
:100640008F917F916F915F914F913F912F910F907B
:100650000BBE0F900FBE0F901F9018951F920F9218
:100660000FB60F9211240BB60F922F938F939F9377
:10067000EF93FF93E0914302F09144028081E09177
:100680004902F0914A0282FD1DC0908180914C0286
:100690008F5F8F7320914D02821741F0E0914C02E1
:1006A000F0E0ED5CFD4F958F80934C02FF91EF9150
:1006B0009F918F912F910F900BBE0F900FBE0F90B7
:1006C0001F9018958081F2CF1F920F920FB60F9254
:1006D00011242F933F938F939F93AF93BF93809158
:1006E0002B0290912C02A0912D02B0912E023091FC
:1006F0002A0223E0230F2D3758F50196A11DB11DC5
:1007000020932A0280932B0290932C02A0932D0217
:10071000B0932E0280912F0290913002A09131026D
:10072000B09132020196A11DB11D80932F029093CA
:100730003002A0933102B0933202BF91AF919F91EA
:100740008F913F912F910F900FBE0F901F90189592
:1007500026E8230F0296A11DB11DD2CF789484B54F
:10076000826084BD84B5816084BD85B5826085BDAD
:1007700085B5816085BD80916E00816080936E003B
:10078000109281008091810082608093810080912D
:1007900081008160809381008091800081608093DE
:1007A00080008091B10084608093B1008091B0009E
:1007B00081608093B000809191008260809391006D
:1007C0008091910081608093910080919000816080
:1007D000809390008091A10082608093A10080911D
:1007E000A10081608093A1008091A000816080932E
:1007F000A0008091210182608093210180912101DC
:10080000816080932101809120018160809320018B
:1008100080917A00846080937A0080917A0082606F
:1008200080937A0080917A00816080937A00809131
:100830007A00806880937A001092C100E0914302B0
:10084000F091440282E08083E0913F02F091400207
:100850001082E0914102F09142028FEC808310926D
:100860004B02E0914702F091480286E08083E091DC
:100870004502F0914602808180618083E0914502CB
:10088000F0914602808188608083E0914502F0917A
:100890004602808180688083E0914502F0914602A3
:1008A00080818F7D8083CFEDD1E0FE01249109E925
:1008B00011E0F80184918823C9F090E0880F991F16
:1008C000FC01EE59FE4FA591B491FC01E85BFE4F8F
:1008D000459154913FB7F8949C91822F809598232D
:1008E0009C93FA019081892380833FBF95E2E92E92
:1008F00092E0F92EF7018491FE012491F801949180
:10090000992309F480C0882311F181508231F8F4D1
:10091000E82FF0E08827E057FB4F8F4F0C9433050A
:10092000C804CC04A204C004C404A704CF04D504A2
:10093000D904DF04E304E704ED04F104A704F5049B
:10094000FB04FF04809180008F7780938000E92F63
:10095000F0E0EE0FFF1FE458FE4FA591B4918C918B
:10096000282309F450C082E192E00E94F7028EE150
:1009700092E00E94F7020E94C1020E946B02BACF6D
:10098000809180008F7DE1CF80918000877FDDCFD7
:1009900084B58F7784BDDBCF84B58F7DFBCF80910D
:1009A000B0008F778093B000D2CF8091B0008F7D60
:1009B000F9CF809190008F7780939000C8CF80917D
:1009C00090008F7DF9CF80919000877FF5CF809147
:1009D000A0008F778093A000BACF8091A0008F7D78
:1009E000F9CF8091A000877FF5CF809120018F778C
:1009F00080932001ACCF809120018F7DF9CF809131
:100A00002001877FF5CF81E292E0AFCFE3E3F2E010
:100A10001382128288EE93E0A0E0B0E08483958395
:100A2000A683B78384E092E09183808385EC90E095
:100A30009587848784EC90E09787868780EC90E0A8
:100A4000918B808B81EC90E0938B828B82EC90E099
:100A5000958B848B86EC90E0978B868B118E128E13
:100A6000138E148E0895EE0FFF1F881F8BBF079003
:0A0A7000F691E02D1994F894FFCFE1
:100A7A0000000000FE01680195014B02C601A401B5
:100A8A00B801497473205261696E696E67000D0A74
:0A0A9A00004E6F205261696E0000EB
:00000001FF
